S00F00004C32315F4145532E737265632E
S1130000D024002065220000F9220000F92200001B
S113001000000000000000000000000000000000DC
S1130020000000000000000000000000F9220000B1
S11300300000000000000000F9220000F922000086
S1130040F9220000F9220000F9220000F922000040
S1130050F9220000F9220000F9220000F922000030
S1130060F9220000F9220000F9220000F922000020
S1130070F9220000F9220000F9220000F922000010
S1130080F9220000F9220000F9220000F922000000
S1130090F9220000F9220000F9220000F9220000F0
S11300A0F9220000F9220000F9220000F9220000E0
S11300B00000000010B5064C2378002B07D1054B37
S11300C0002B02D0044800E000BF0123237010BDC0
S11300D06804002000000000B83B0000084B10B585
S11300E0002B03D00749084800E000BF0748036815
S11300F0002B00D110BD064B002BFBD09847F9E72D
S1130100000000006C040020B83B0000B83B000075
S11301100000000080B584B000AF78600A00FB1CCA
S11301201A700F23FB187A6812781A707B685A7851
S11301307B681A707B6801337A6892781A707B68DE
S113014002337A68D2781A707B6803330F22BA18A4
S113015012781A707B681B781A00164B9A5C7B68BD
S11301601A707B6801337A68013212781100114ADF
S1130170525C1A707B6802337A680232127811007A
S11301800C4A525C1A707B6803337A680332127823
S11301901100084A525C1A707B681A78FB1C1B78A1
S11301A00549CB5C5340DAB27B681A70C046BD4641
S11301B004B080BD000000200003002080B588B09A
S11301C000AF786039600023FB610AE0FB693A689C
S11301D0D318FA6979688A1812781A70FB6901339E
S11301E0FB61FB690F2BF1DD1023BB6101237B61F4
S11301F040E000233B610FE03A69BB69D318043B3C
S11302003A68D31819780823FA183B69D3180A1CDA
S11302101A703B6901333B613B69032BECDDBB691D
S11302200F2213400AD17B69DAB20823FB181100AC
S11302301800144B98477B6901337B610023FB60F2
S113024015E0BB693A68D318BA69103A39688A1854
S113025011780822B818FA68821812784A40D2B283
S11302601A70BB690133BB61FB680133FB60FB6837
S1130270032BE6DDBB69AF2BBBDDC046BD4608B032
S113028080BDC0461501000080B584B000AF786021
S11302900F23FB1800221A7015E00F23FB181B789C
S11302A07A68D3180F22BA18127879688A181278E3
S11302B01100094A525C1A700F23FB181A780F2395
S11302C0FB1801321A700F23FB181B780F2BE4D98B
S11302D0C046BD4604B080BD0000002080B588B093
S11302E000AF78607B681A780C23FB181A707B685F
S11302F01A790C23FB181A717B681A7A0C23FB18E1
S11303001A727B681A7B0C23FB181A737B685A7960
S11303100C23FB185A707B685A7A0C23FB185A7109
S11303207B685A7B0C23FB185A727B685A780C231F
S1130330FB185A737B689A7A0C23FB189A707B68B3
S11303409A7B0C23FB189A717B689A780C23FB1810
S11303509A727B689A790C23FB189A737B68DA7B10
S11303600C23FB18DA707B68DA780C23FB18DA713B
S11303707B68DA790C23FB18DA727B68DA7A0C234F
S1130380FB18DA731F23FB1800221A7012E01F23D4
S1130390FB181B787A68D3181F22BA1812780C211C
S11303A079188A5C1A701F23FB181A781F23FB180C
S11303B001321A701F23FB181B780F2BE7D9C04694
S11303C0BD4608B080BD000080B588B000AF78603D
S11303D07B681B781A00E54B9A5C7B6801331B78B9
S11303E01900E34B5B5C5340DAB27B6802331B7841
S11303F05340DAB27B6803331B785340DAB20C23E0
S1130400FB181A707B681A787B6801331B78190013
S1130410D64B5B5C5340DAB27B6802331B7819001D
S1130420D34B5B5C5340DAB27B6803331B78534095
S1130430DAB20C23FB185A707B681A787B68013394
S11304401B785340DAB27B6802331B781900C74B20
S11304505B5C5340DAB27B6803331B781900C44BEE
S11304605B5C5340DAB20C23FB189A707B681B78F0
S11304701A00BF4B9A5C7B6801331B785340DAB295
S11304807B6802331B785340DAB27B6803331B78F2
S11304901900B64B5B5C5340DAB20C23FB18DA70DC
S11304A07B6804331B781A00B04B9A5C7B68053375
S11304B01B781900AE4B5B5C5340DAB27B680633A1
S11304C01B785340DAB27B6807331B785340DAB2A7
S11304D00C23FB181A717B6804331A787B68053384
S11304E01B781900A14B5B5C5340DAB27B6806337E
S11304F01B7819009E4B5B5C5340DAB27B68073370
S11305001B785340DAB20C23FB185A717B6804330E
S11305101A787B6805331B785340DAB27B6806335C
S11305201B781900914B5B5C5340DAB27B6807334C
S11305301B7819008E4B5B5C5340DAB20C23FB181A
S11305409A717B6804331B781A00894B9A5C7B6828
S113055005331B785340DAB27B6806331B7853406B
S1130560DAB27B6807331B781900804B5B5C53401D
S1130570DAB20C23FB18DA717B6808331B781A0093
S11305807A4B9A5C7B6809331B781900784B5B5C67
S11305905340DAB27B680A331B785340DAB27B6883
S11305A00B331B785340DAB20C23FB181A727B68A6
S11305B008331A787B6809331B7819006B4B5B5C32
S11305C05340DAB27B680A331B781900684B5B5CD2
S11305D05340DAB27B680B331B785340DAB20C23F6
S11305E0FB185A727B6808331A787B6809331B78C6
S11305F05340DAB27B680A331B7819005B4B5B5CAF
S11306005340DAB27B680B331B781900584B5B5CA0
S11306105340DAB20C23FB189A727B6808331B78B8
S11306201A00534B9A5C7B6809331B785340DAB247
S11306307B680A331B785340DAB27B680B331B7830
S113064019004A4B5B5C5340DAB20C23FB18DA7294
S11306507B680C331B781A00444B9A5C7B680D331F
S11306601B781900424B5B5C5340DAB27B680E3353
S11306701B785340DAB27B680F331B785340DAB2ED
S11306800C23FB181A737B680C331A787B680D33C0
S11306901B781900354B5B5C5340DAB27B680E3330
S11306A01B781900324B5B5C5340DAB27B680F3322
S11306B01B785340DAB20C23FB185A737B680C3353
S11306C01A787B680D331B785340DAB27B680E339B
S11306D01B781900254B5B5C5340DAB27B680F33FF
S11306E01B781900224B5B5C5340DAB20C23FB18D5
S11306F09A737B680C331B781A001D4B9A5C7B68D9
S11307000D331B785340DAB27B680E331B785340A9
S1130710DAB27B680F331B781900144B5B5C5340CF
S1130720DAB20C23FB18DA731F23FB1800221A70A9
S113073012E01F23FB181B787A68D3181F22BA18FB
S113074012780C2179188A5C1A701F23FB181A7806
S11307501F23FB1801321A701F23FB181B780F2B61
S1130760E7D9C046BD4608B080BDC04600010020A0
S11307700002002080B584B000AF786039600F2398
S1130780FB1800221A701AE00F23FB181B787A68F2
S1130790D3180F22BA18127879688A1811780F22A0
S11307A0BA1812783868821812784A40D2B21A708D
S11307B00F23FB181A780F23FB1801321A700F232A
S11307C0FB181B780F2BDFD9C046BD4604B080BD93
S11307D080B5B6B000AF786039600023D422BA186F
S11307E0136014E0D423FB181B687A68D3181978B3
S11307F0B823FA18D423FB181B68D3180A1C1A70E0
S1130800D423FB181B680133D422BA181360D423F1
S1130810FB181B680F2BE5DD0923C822BA181360E7
S11308200823FA183B6811001800384B98473A68B7
S1130830B823FB1811001800354B98470023D02229
S1130840BA18136024E0B823FB181800314B9847FA
S1130850B823FB181800304B9847B823FB1818002E
S11308602E4B9847D023FB181B6801331B011A0039
S11308700823FB189A18B823FB1811001800244BFE
S11308809847D023FB181B680133D022BA18136091
S1130890D023FB181A68C823FB181B689A42D2DBC2
S11308A0B823FB1818001B4B9847B823FB181800F3
S11308B0194B98470823FB18A033B822BA1819001B
S11308C01000134B98470023CC22BA18136013E08E
S11308D0CC23FB181B687A68D318B822B918CC2229
S11308E0BA1812688A1812781A70CC23FB181B687D
S11308F00133CC22BA181360CC23FB181B680F2BCE
S1130900E6DDC046BD4636B080BDC046BD01000030
S11309107507000089020000DD020000C903000021
S113092080B582B000AF104B1B68002B12D1EFF3DF
S113093010837B607B68002B09D172B6BFF35F8F95
S11309400A4B00221A700A4B01221A7002E0084B6B
S113095000221A70044B1B685A1C034B1A60C046D1
S1130960BD4602B080BDC0468404002000040020BF
S11309708804002080B500AF0B4B1B685A1E0A4B3D
S11309801A60094B1B68002B0AD1084B1B78DBB299
S1130990002B05D0064B01221A70BFF35F8F62B69D
S11309A0C046BD4680BDC0468404002088040020A3
S11309B00004002080B584B000AF0200FB1D1A7053
S11309C00F23FB18FA1D1278D2091A700E23FB1894
S11309D0FA1D127852091A700D4BBB600F23FB18D5
S11309E01B78002B0FD10F23FB181B789B001022C0
S11309F09446BC446344083B1A680E23FB181B78D6
S1130A00DB01D31800E000231800BD4604B080BD0C
S1130A100028004080B582B000AF0200FB1D1A70B0
S1130A20FB1D1B781800034B984703001800BD46B4
S1130A3002B080BDB509000080B582B000AF786017
S1130A407B6800221A707B6801225A707B6800223E
S1130A509A70C046BD4602B080BD000080B584B027
S1130A6000AF0200FB1D1A70BB1D0A1C1A70FB1D8F
S1130A701B7818000D4B98470300FB60FB1D1B7887
S1130A801F22134001229A401300BB60BB1D1B7838
S1130A90002B03D0FB68BA689A6102E0FB68BA686D
S1130AA05A61C046BD4604B080BDC046150A000068
S1130AB080B582B000AF3B1D18000E4B98473B1D1C
S1130AC001221A703B1D19002A200B4B9847012163
S1130AD02A200A4B98473B1D00221A703B1D012215
S1130AE05A703B1D19000220034B9847C046BD466F
S1130AF002B080BD390A0000290B00005D0A000025
S1130B0080B582B000AF78607B6880221A707B6801
S1130B1000225A707B6801229A707B680022DA7086
S1130B20C046BD4602B080BD80B584B000AF0200AF
S1130B303960FB1D1A700C23FB181800104B9847E2
S1130B400C23FB1880221A703B681A780C23FB18BC
S1130B505A703B685A780C23FB189A703B689A7851
S1130B600C23FB18DA700C23FA18FB1D1B781100F8
S1130B701800044B9847C046BD4604B080BDC0462B
S1130B80010B0000DD21000080B582B000AF786069
S1130B907B6800221A70C046BD4602B080BDF0B525
S1130BA08DB000AFB860F9603A607B600023002428
S1130BB03B627C6200230024BB61FC613F23FB6237
S1130BC053E0FB6A203B002B04DB01229A40130014
S1130BD07B610BE0FB6A2022D31A0122DA40130066
S1130BE00021FA6A91400A0013437B610122FB6AE7
S1130BF09A4013003B61BB69FC69DB186441BB612B
S1130C00FC61BB683A691A401500FB687A691A40AE
S1130C1016002B00334307D0BB6901221343BB6189
S1130C20FB6900221343FB617A68FB699A4219D875
S1130C307A68FB699A4203D13A68BB699A4211D82F
S1130C40B969FA693B687C68C91AA2410B001400AF
S1130C50BB61FC613A6A3B6913433B627A6A7B6914
S1130C6013437B62FB6A013BFB62FB6A002BA8DA3D
S1130C703B6A7C6A18002100BD460DB0F0BD80B50A
S1130C8086B000AFF860B9607A601623FB180022C2
S1130C901A80BB683B61BB685A08FB689A4201D260
S1130CA0402326E0BB685B083B610AE03A69FB68C5
S1130CB0D31A3B611623FB181A881623FB1801323A
S1130CC01A803A69FB689A42F0D21623FB1816225E
S1130CD0BA181288013A1A801623FB181B88FF2BB6
S1130CE001D9402305E07B681622BA1812881A80BD
S1130CF000231800BD4606B080BD0000F0B5A1B0C9
S1130D0000AFF864B9647A644322BA1813700023FC
S1130D1000243B677C6700230024BB66FC66002339
S1130D200024BB67FC6700237B665823402294465B
S1130D30BC4463441A78FB6C5A43BB6C9A4201D995
S1130D404023B3E04323FB181B78002B3DD15823E9
S1130D5040229446BC4463441B78DBB23B610023CD
S1130D607B61FB6CBB600023FB60524CBA68FB6880
S1130D7038697969A04703000C001B00FB65002358
S1130D80BB65BB6C3B6000237B60B86DF96D3A6852
S1130D907B68494CA04703000C003B677C6700213B
S1130DA001223B6F7C6FC91AA2410B001400BB6681
S1130DB0FC66BB6E1B0CFA6E16041E43BB6E1D0450
S1130DC03300BB670023FB676AE04323FB181B78EF
S1130DD0012B65D1FB6C3B6300237B6358234022CA
S1130DE09446BC4463441B78DBB2BB620023FB62C1
S1130DF0304CBA6AFB6A386B796BA04703000C006D
S1130E00BB65FC65BB6C3B6200237B62BB6DFC6D08
S1130E101A002300386A796A274CA04703000C00A3
S1130E207B667A6E80239B019A4201D940233DE080
S1130E30BB6CBB610023FB61B969FA690B005B0FF2
S1130E401000C000F863F86B1843F8630B00DB0074
S1130E50BB63BB6DFC6D1A002300B86BF96B164CB9
S1130E60A04703000C00BB65FC65BB6DFC6DD9B2EB
S1130E707B6EDBB2DB00DAB2172340208446BC442D
S1130E8063448A1A1A70172340229446BC4463446C
S1130E901B785B031A007B6E1343BB670023FB675D
S1130EA0BB6FFC6F9AB27B6C1A8000231800BD469E
S1130EB021B0F0BDF12800009F0B000080B584B084
S1130EC000AF0200FB1D1A70BB1D0A1C1A701A4BDE
S1130ED01B7801225340DBB2002B03D1BB1D1B78CE
S1130EE0002B1BD00C23FB181800144B98470C2321
S1130EF0FB18FA1D12781A700C23FB181900112024
S1130F000F4B984711200F4B98470B4BFA1D127843
S1130F105A70094B01221A70002308E0064B5B78D3
S1130F20FA1D12789A4201D1002300E01D23180013
S1130F30BD4604B080BDC0468C040020890B00006F
S1130F40291F0000691F000080B582B000AF7860DF
S1130F500A00FB1C1A707B684E4A934240D04D4AEB
S1130F60934207D88422D20593420FD04A4A93422F
S1130F7021D089E0494A934200D15BE0484A934238
S1130F8000D16CE0474A93423FD07DE0FB1C1B78C4
S1130F90012B0AD002DC002B05D075E0022B06D011
S1130FA0032B06D070E0404B6FE0404B6DE0404BAC
S1130FB06BE0404B69E0FB1C1B78012B0AD002DC80
S1130FC0002B05D060E0022B06D0032B06D05BE09B
S1130FD003235AE0384B58E0384B56E0384B54E082
S1130FE0FB1C1B78012B0AD002DC002B05D04BE044
S1130FF0022B06D0032B06D046E0324B45E0324BA1
S113100043E0324B41E0324B3FE0FB1C1B78012BA9
S11310100AD002DC002B05D036E0022B06D0032BCD
S113102006D031E02B4B30E02B4B2EE02B4B2CE049
S11310302B4B2AE0FB1C1B78012B0AD002DC002B73
S113104005D021E0022B06D0032B06D01CE0254B53
S11310501BE0254B19E0254B17E0254B15E0FB1C45
S11310601B78012B0AD002DC002B05D00CE0022BEC
S113107006D0032B06D007E01E4B06E01E4B04E00F
S11310801E4B02E01E4B00E000231800BD4602B0D8
S113109080BDC04600080042000400420010004227
S11310A000040043000C0042030004000300050098
S11310B003000600030007000300010003001E00F4
S11310C003001F00030008000300090003000A00D6
S11310D003000B00030010000300110003001200C2
S11310E00300130003000C0003000D0003000E00B6
S11310F003000F000300160003001700030018008C
S11311000300190090B58BB000AF78600C23FB1876
S11311100F4A13CA13C313CA13C300237B620EE01E
S11311200C23FB187A6A9200D3581A007B689A42FF
S113113002D17B6ADBB206E07B6A01337B627B6AA5
S1131140052BEDD900231800BD460BB090BDC04659
S1131150543A000080B582B000AF78607B6800220A
S11311601A70C046BD4602B080BD000080B582B092
S113117000AF02003960FB1D1A70FB1D1B78042BA5
S113118027D89A00164BD3181B689F46154B154A4F
S113119051693A680A435A611DE0124B114A916938
S11311A03A680A439A6116E00E4B0E4AD1693A68CE
S11311B00A43DA610FE00B4B0A4A116A3A680A43A0
S11311C01A6208E0074B074A516A3A680A435A62AE
S11311D001E0172300E000231800BD4602B080BDE3
S11311E06C3A00000004004080B582B000AF786023
S11311F07B6880221A707B6800225A707B68012207
S11312009A707B680022DA70C046BD4602B080BD89
S113121080B500AF054B9B78DBB21A000223134064
S11312205A1E9341DBB21800BD4680BD0020004128
S113123080B584B000AF78607B681B68FB60FB6896
S1131240DB695A1E9341DBB21800BD4604B080BD71
S113125080B582B000AF7860C0467B681800044B4C
S11312609847031EF9D1C046BD4602B080BDC046B2
S113127031120000B0B58CB002AF786039607B6881
S11312801B68BB617B681B681800AB4B9847030065
S11312907B617B6912333B6100237B6200233B62E9
S11312A00A23FB1800221A801F23FB1800221A703D
S11312B01E23FB1810221A703B681B8A8022D2015D
S11312C093421CD08022D201934206DC002B0DD025
S11312D080229201934224D035E0C022D20193426D
S11312E028D080221202934212D02CE01F23FB1834
S11312F000221A701E23FB1810221A7023E01F23E9
S1131300FB1800221A701E23FB1808221A701AE018
S11313101F23FB1800221A701E23FB1803221A70C5
S113132011E01F23FB1801221A701E23FB18102240
S11313301A7008E01F23FB1801221A701E23FB18E1
S113134008221A70C0463B681A683B68DB681A4377
S11313503B685B6913433A68128A13433A68127E06
S1131360120213433A682621525C520713437B62EC
S11313701D23FB1800221A703B685B68FB60FB6846
S1131380002B1ED08022520593424FD13B68272266
S11313909B5C01225340DBB2002B46D03B681D6AA4
S11313A03B69DBB21800654B984701001D23FC180C
S11313B00A23FB181A002800614B98470300237086
S11313C033E03B6827229B5C002B14D03B68186AEF
S11313D03B68996A1D23FC181F23FB181D780A23F8
S11313E0FA181E23FB181B7800932B00554DA847B1
S11313F0030023701AE03B681D6A3B69DBB21800E6
S11314004E4B98471D23FC181F23FB1819780A23F9
S1131410FA181E23FB181B7800930B000100280008
S1131420484DA8470300237000E0C0461D23FB1865
S11314301B78002B03D01D23FB181B7877E03B6837
S11314405B7E002B03D03B689A7EBB699A737B68F2
S113145018003D4B98470A23FB181A88BB699A81E8
S11314607A6AFB6813437B623B6827229B5C0122F8
S11314705340DBB2002B03D07B6A042213437B620C
S11314803B685B7E9A023B681B7F5B021A433B68A6
S11314905B7F1B021A433B6824215B5C5B041A4399
S11314A03B6825215B5C1B0413433B623B689B7ACE
S11314B01A003B6A13433B623B68DB7A1A003B6ABF
S11314C013433B623B681B89FF2B0BD07B6A802252
S11314D0520413437B623B681B891A003B6A134323
S11314E03B6208E03B68DB7E002B04D07B6A8022F1
S11314F0D20413437B623B682C229B5C002B03D1F8
S1131500124B9847031E03D07B6A802213437B62ED
S11315107B6818000C4B9847BB693A6A5A607B6831
S11315201800094B9847BB697A6A1A6000231800AF
S1131530BD460AB0B0BDC046051100001920000028
S11315407F0C0000FD0C000051120000111200007D
S113155090B593B000AFF860B9607A603723FB1898
S113156000221A70FB68BA681A60FB681B683B6348
S1131570FB681B6818006D4B98470300FB62FB6A0D
S1131580052B04D101237B6418233B6404E0FB6A2C
S11315907B64FB6A12333B643B6B1B680122134080
S11315A001D00523BDE03B6B1B680222134001D030
S11315B01C23B6E0FB6A052B08D101227B6C9A4000
S11315C01300190003205A4B984707E001227B6C53
S11315D09A40130019000220554B98472823FB1802
S11315E01800544B98477B682D229A5C2823FB18DB
S11315F01A703B6CDBB22822BA18110018004E4B4B
S113160098473B6CDBB218004C4B98477B682D2203
S11316109B5C002118004A4B98477B68DA7AFB6888
S11316205A717B6824229A5CFB689A717B68252234
S11316309A5CFB68DA717B68DA7EFB681A727B68F5
S11316401A7FFB685A723723FC187A68FB6811000A
S113165018003C4B9847030023703723FB181B7872
S1131660002B03D03723FB181B785AE02423FB18E4
S11316701800354B98472423FB1800225A70242362
S1131680FB1800229A707B681A6B1423FB181A60EB
S11316907B685A6B1423FB185A607B689A6B14237B
S11316A0FB189A607B68DA6B1423FB18DA603F231B
S11316B0FB1800221A702CE03F23FB181A7814231D
S11316C0FB189200D358BB63BB6B002B09D13F239B
S11316D0FB181A78BB68110018001C4B98470300CC
S11316E0BB63BB6B01330DD0BB6BDAB22423FB1895
S11316F01A70BB6B1B0CDBB22422BA181100180041
S1131700134B98473F23FB181A783F23FB180132E9
S11317101A703F23FB181B78032BCDD93723FB18F2
S11317201B781800BD4613B090BDC04605110000DB
S11317306D11000055110000291F0000691F0000F1
S1131740BD0E000075120000E9110000490F0000F1
S1131750DD21000080B584B000AF78600A00BB1CB6
S11317601A807B681B68FB607B68DB79012253402D
S1131770DBB2002B01D01C2319E0FB681B7EDBB21B
S11317801A000123134001D1052310E07B681800DF
S1131790094B9847FB68BA1C12881A85C046FB6837
S11317A01B7EDBB21A0002231340F8D0002318007A
S11317B0BD4604B080BDC0465112000080B584B05F
S11317C000AF786039607B681B68FB607B689B793D
S11317D001225340DBB2002B01D01C2357E0FB68ED
S11317E01B7EDBB21A000423134001D105234EE013
S11317F07B681800284B9847FB685B8B9BB2DAB276
S11318000B23FB183F210A401A700B23FB181B788B
S1131810002B36D00B23FB181B780222134004D074
S1131820FB6802225A831A2331E00B23FB181B782E
S11318300422134004D0FB6804225A831E2326E0AA
S11318400B23FB181B780122134004D0FB680122F0
S11318505A8313231BE00B23FB181B78102213401D
S113186004D0FB6810225A83422310E00B23FB1898
S11318701B782022134004D0FB6820225A83412382
S113188005E0FB681B8D9AB23B681A8000231800A0
S1131890BD4604B080BDC0465112000080B582B080
S11318A000AF78607B6801225A607B6800225A701E
S11318B07B6806221A707B6800221A727B680022F9
S11318C05A72C046BD4602B080BD000080B582B0E9
S11318D000AF0200FB1D1A70FB1D1B78002B08D003
S11318E00A4A0A4B1B78DBB204210B43DBB21370A8
S11318F007E0064A054B1B78DBB204218B43DBB2BD
S11319001370C046BD4602B080BDC046000400400E
S113191080B582B000AF0200FB1D1A70054AFB1DA2
S11319201B78012199400B00DBB21371C046BD4600
S113193002B080BD0004004080B582B000AF020058
S1131940FB1D1A70054AFB1D1B78012199400B00F1
S1131950DBB25371C046BD4602B080BD00040040F6
S113196080B582B000AF0200FB1D1A70054AFB1D52
S11319701B78012199400B00DBB29371C046BD4630
S113198002B080BD0004004080B500AF0020074BCA
S113199098470200064B1B79DBB21900054B100077
S11319A0984703001800BD4680BDC046691E00006C
S11319B000040040D927000080B582B000AF0200C7
S11319C0FB1D1A70084AFB1D1B780F210B40D9B26E
S11319D053680F20014049001E2083430B4353608A
S11319E0C046BD4602B080BD0040004180B582B013
S11319F000AF0200FB1D1A708023DB059B78DBB26D
S1131A00FA1D12789A4201D1002310E08023DB05ED
S1131A1001229A718023DB05FA1D12789A70C04660
S1131A208023DB059B79DBB2002BF9D0002318005F
S1131A30BD4602B080BD000080B500AFC046044B77
S1131A40DA6880235B001340F9D0C046BD4680BDF0
S1131A50000C004080B582B000AF0200FB1D1A707C
S1131A60FB1D1B78082B41D89A00234BD3181B6805
S1131A709F46224B1B693AE0214B1B7D1B079B0FA2
S1131A80DBB201331A001F4B534330E080231B02A7
S1131A902DE080231B022AE0184B5B6927E0174BDB
S1131AA01B680222134001D1002320E0164B984703
S1131AB0124B1B680422134009D00020134B984793
S1131AC002000E4B9B681B041B0C53430FE0104B8E
S1131AD00DE00B4A2823D35CDBB21A000223134027
S1131AE001D1002303E0054BDB6800E0002318006C
S1131AF0BD4602B080BDC046803A0000900400207C
S1131B00000C004000093D00391A000019200000B3
S1131B10006CDC0280B5A0B000AF264B80225200DE
S1131B209A60254B03229A600020244B9847022098
S1131B30234B98471F4A137D802149420B43137559
S1131B401C4A137D40218B4313751E4B984700207C
S1131B501D4B984700201D4B984700201C4B98476D
S1131B6000201C4B98473B1D18001B4B98473B1DFE
S1131B7006221A703B1D01225A603B1D00221A7274
S1131B803B1D00225A723B1D19000020134B98473D
S1131B900020134B9847134B98470300FB67FB6FD8
S1131BA0114A934202D80020054B9847C046BD46CF
S1131BB020B080BD000C004000140040B9190000A2
S1131BC0ED190000CD1C0000611900003919000056
S1131BD011190000CD1800009D180000FD1C000024
S1131BE00D1E000089190000001BB70080B582B0EB
S1131BF000AF02003960FB1D1A70FB1D1B78042B1B
S1131C0027D89A00164BD3181B689F46154B154AC4
S1131C1051693A680A435A611DE0124B114A9169AD
S1131C203A680A439A6116E00E4B0E4AD1693A6843
S1131C300A43DA610FE00B4B0A4A116A3A680A4315
S1131C401A6208E0074B074A516A3A680A435A6223
S1131C5001E0172300E000231800BD4602B080BD58
S1131C60A43A00000004004080B500AF024B98473E
S1131C70C046BD4680BDC0462109000080B500AF06
S1131C80024B9847C046BD4680BDC046750900005A
S1131C9080B582B000AF0200FB1D1A70094B5B686F
S1131CA0FA1D1278012191400A0092001340064A5D
S1131CB0134001D0012300E000231800BD4602B008
S1131CC080BDC04600180040FC07000080B500AF8E
S1131CD040210020074B9847074B01221A70C04649
S1131CE0054B1B78DBB21A0001231340F8D1C04620
S1131CF0BD4680BDED1B00000018004080B586B0D5
S1131D0000AF02003960FB1D1A703B681B787B61D1
S1131D103B685B78002B04D07B698022D20013439C
S1131D207B613B685B7A002B04D07B6980221201C3
S1131D3013437B613B685B68012B2CD93B685A6871
S1131D403B685B68013B13401AD100233B610223CB
S1131D50FB6005E03B6901333B61FB685B00FB60B2
S1131D603B685A68FB689A42F4D83B691B047A6959
S1131D7013437B617B698022520113437B610AE038
S1131D803B685B681B047A6913437B617B6980222F
S1131D90920013437B613B681B7A002B04D07B6960
S1131DA08022920113437B61C046FB1D1B781800FF
S1131DB0124B9847031EF8D1114B98471148FB1D4D
S1131DC01B781049FA1D127808329200515880226B
S1131DD0520011407A690A4308339B001A50C046E6
S1131DE0FB1D1B781800054B9847031EF8D1064BC2
S1131DF09847C046BD4606B080BDC046911C000051
S1131E00691C0000001800407D1C000080B582B0F1
S1131E1000AF0200FB1D1A70C046FB1D1B781800A2
S1131E200D4B9847031EF8D10C4B98470C48FB1DEB
S1131E301B780B49FA1D12780832920052588021FF
S1131E4049000A4308339B001A50064B9847C04682
S1131E50BD4602B080BDC046911C0000691C000054
S1131E60001800407D1C000080B586B000AF020061
S1131E70FB1D1A70C046FB1D1B781800244B9847A5
S1131E80031EF8D1234B9847234AFB1D1B780833C4
S1131E909B009B58DB06DB0EDBB218001F4B9847F8
S1131EA003007B611C4AFB1D1B7808339B009B5875
S1131EB0DB04DB0FDAB21323FB181A70164AFB1D7E
S1131EC01B7808339B009B581B0C9BB2FB60144B84
S1131ED098471323FB181B78002B09D1FB68012BAF
S1131EE006D9104BF9687869984703007B610AE0CA
S1131EF01323FB181B78002B05D0FB6801337A6988
S1131F00DA4013007B617B691800BD4606B080BDD2
S1131F10911C0000691C000000180040551A0000C4
S1131F207D1C0000D927000080B582B000AF0200FC
S1131F303960FB1D1A70FB1D1B781800084B98476D
S1131F400849FB1D1B783A68127810000F220240E2
S1131F5020339B005A50C046BD4602B080BDC046E7
S1131F60C11F00000018004080B582B000AF02001D
S1131F70FB1D1A700F4B98470F49FB1D1B780E4829
S1131F80FA1D127820329200125840200243203366
S1131F909B005A50C046084AFB1D1B7820339B0007
S1131FA09B5840221340F6D0044B9847C046BD4688
S1131FB002B080BD691C0000001800407D1C0000B8
S1131FC080B582B000AF0200FB1D1A700F4B98471A
S1131FD00F49FB1D1B780E48FA1D1278203292001F
S1131FE012584020824320339B005A50C046084A6E
S1131FF0FB1D1B7820339B009B5840221340F6D1D5
S1132000044B9847C046BD4602B080BD691C000021
S1132010001800407D1C000080B584B000AF0200B1
S1132020FB1D1A700D4B98470D4AFB1D1B7820337E
S11320309B009B581B071B0FDAB20F23FB181A7067
S1132040084B98470F23FB181B781800064B98473A
S113205003001800BD4604B080BDC046691C0000E2
S1132060001800407D1C0000691E000080B584B08B
S113207000AF0200FB1D1A700F23FB18FA1D127823
S1132080D2091A700E23FB18FA1D127852091A701D
S11320900D4BBB600F23FB181B78002B0FD10F23B4
S11320A0FB181B789B0010229446BC446344083BF5
S11320B01A680E23FB181B78DB01D31800E00023F9
S11320C01800BD4604B080BD0028004080B588B02B
S11320D000AFF860B9607A600023FB617B68DB784D
S11320E001225340DBB2002B35D07B681B78802B58
S11320F00BD0FB69802252021343FB617B681B787F
S11321001B061A00FB691343FB617B685B78002B99
S113211003D07B685B78022B10D1FB69802292028A
S11321201343FB617B689B78002B04D0FB698022FE
S1132130D2021343FB61FB68BA685A607B685B7820
S1132140012B03D07B685B78022B07D1FB69224A01
S11321501340FB6102E0FB68BA685A60BB681B0469
S11321601B0CBB61BB681B0C7B61BA69FB69134325
S1132170A022D2051A43FB689A627A69FB69134369
S1132180D02212061A43FB689A627B68DB7801222C
S11321905340DBB2002B1AD0FA698023DB021340D0
S11321A00AD07B689B78012B03D1FB68BA689A61DB
S11321B002E0FB68BA685A617B685B78012B03D044
S11321C07B685B78022B02D1FB68BA689A60C046D0
S11321D0BD4608B080BDC046FFFFFBFF80B584B09C
S11321E000AF02003960FB1D1A70FB1D1B7818003C
S11321F00A4B98470300FB60FB1D1B781F2213400A
S113220001229A401300BB603A68B968FB68180061
S1132210034B9847C046BD4604B080BD6D20000006
S1132220CD20000080B500AFC046BD4680BD000093
S113223080B500AF064B9847064B9847064B984726
S1132240064B9847064B9847C046BD4680BDC046DE
S1132250151B0000B10A0000252200002522000001
S11322602522000080B582B000AF194B7B60194B6A
S11322703B607A683B689A420CD007E03B681A1DC1
S11322803A607A68111D796012681A603A68124BD4
S11322909A42F3D3114B3B6004E03B681A1D3A6049
S11322A000221A603A680E4B9A42F6D30D4B7B60BB
S11322B00D4B7A68FF218A439A600C4A5368802147
S11322C00B4353600A4B98470A4B9847FEE7C046B6
S11322D0B83B0000000000206804002068040020CF
S11322E0D00400200000000000ED00E000400041A8
S11322F0452900001127000080B500AFFEE700006B
S113230080B586B000AFF860B9607A6000237B6165
S1132310FB68002B12D001235B4213E00B4B1A68BD
S11323200B4B1B68B96818009047BB680133BB604E
S11323307B6901337B617B68013B7B607B68002B9D
S1132340ECDC7B691800BD4606B080BDB4040020F7
S1132350BC04002080B586B000AFF860B9607A6034
S113236000237B61FB68012B1DD0FB68022B1AD074
S1132370FB68032B17D001235B4218E00E4B1A684D
S11323800E4B1868BB68591CB9601B78190090473C
S1132390031E02DA01235B4209E07B6901337B619E
S11323A07B68013B7B607B68002BE7D17B6918006D
S11323B0BD4606B080BDC046B8040020BC04002061
S11323C080B584B000AF78600A4B1B68002B02D143
S11323D0084B094A1A60074B1B68FB60054B1A68D7
S11323E07B68D218034B1A60FB681800BD4604B022
S11323F080BDC046A8040020D024002080B582B04F
S113240000AF786001235B421800BD4602B080BD76
S113241080B582B000AF786039603B688022920159
S11324205A6000231800BD4602B080BD80B582B05A
S113243000AF786001231800BD4602B080BD80B5AE
S113244084B000AFF860B9607A6000231800BD461C
S113245004B080BD80B584B000AF78607B681B6831
S1132460FB60FB68DB695A1E9341DBB21800BD4672
S113247004B080BD80B582B000AF7860C0467B6890
S11324801800044B9847031EF9D1C046BD4602B05C
S113249080BDC0465524000080B582B000AF78608E
S11324A07B688022D2051A607B6800225A607B68B0
S11324B0FF221A817B6800229A727B680022DA72FA
S11324C07B68962292011A627B6824220121995426
S11324D07B682522012199547B6826220021995486
S11324E07B682722002199547B6800229A627B68CA
S11324F088225203DA607B682C22002199547B687D
S11325002D22002199547B6800221A637B680022E3
S11325105A637B6800229A637B680022DA637B68D3
S113252000225A617B6800221A827B680022DA76D4
S11325307B6800221A767B6800221A777B68002267
S11325405A767B6813229A767B6800225A77C046B3
S1132550BD4602B080BD000080B584B000AF786095
S11325607B681B68FB607B681800064B9847FB6818
S11325701B6802221A43FB681A60C046BD4604B0B9
S113258080BDC0467524000080B584B000AFF860FB
S1132590B9607A607A68B968FB681800054B984797
S11325A0031E01D1012300E000231800BD4604B03E
S11325B080BDC0465115000080B582B000AF786080
S11325C00A00FB1C1A70C046FB1C1B789AB27B687D
S11325D011001800044B9847031EF5D1002318007E
S11325E0BD4602B080BDC0465517000080B584B01A
S11325F000AF786039600E23FB1800221A80C046B1
S11326000E23FA187B6811001800074B9847031E25
S1132610F6D10E23FB181B88DAB23B681A70C04649
S1132620BD4604B080BDC046BD17000080B584B06F
S113263000AFF860B9607A60104BFA681A60104B0A
S1132640104A1A60104B114A1A607A68B968FB681C
S113265018000F4B98470F4B1B689B68002118000C
S11326600D4B98470B4B1B685B68002118000A4B05
S11326709847C046BD4604B080BDC046BC04002097
S1132680B8040020B9250000B4040020ED250000A2
S11326908925000004040020A52A000080B590B01C
S11326A000AF3B001800134B98473B009622920161
S11326B01A623B0080225203DA603B000E4A1A631E
S11326C03B000E4A5A633B00012252429A633B008C
S11326D001225242DA633A0009490A4B18000A4BB4
S11326E09847084B1800094B9847C046BD4610B0A0
S11326F080BDC046992400000200160002001700A5
S1132700000C0042C00400202D26000059250000C2
S113271090B58BB000AF264B9847264B9847264B75
S11327201800264B98471023FB18254A13CA13C3D5
S113273012681A603B00224A13CA13C312681A6053
S1132740204B18001D4B984700237B620DE010239B
S1132750FA187B6AD3181B781A001B4B1100180057
S11327601A4B98477B6A01337B627B6A0F2BEEDD41
S11327703A001023FB1811001800154B9847154B0D
S113278018000E4B984700233B620DE01023FA1803
S11327903B6AD3181B781A000B4B110018000B4B23
S11327A098473B6A01333B623B6A0F2BEEDDFEE741
S11327B0312200009D260000B83A0000912A000052
S11327C0F03A0000CC3A0000DC3A00009D290000F9
S11327D0D1070000E43A0000002243088B4274D37E
S11327E003098B425FD3030A8B4244D3030B8B420E
S11327F028D3030C8B420DD3FF22090212BA030C17
S11328008B4202D31212090265D0030B8B4219D3F7
S113281000E0090AC30B8B4201D3CB03C01A524117
S1132820830B8B4201D38B03C01A5241430B8B425F
S113283001D34B03C01A5241030B8B4201D30B0348
S1132840C01A5241C30A8B4201D3CB02C01A52416F
S1132850830A8B4201D38B02C01A5241430A8B4232
S113286001D34B02C01A5241030A8B4201D30B021B
S1132870C01A5241CDD2C3098B4201D3CB01C01A35
S1132880524183098B4201D38B01C01A524143093F
S11328908B4201D34B01C01A524103098B4201D32D
S11328A00B01C01A5241C3088B4201D3CB00C01A9A
S11328B0524183088B4201D38B00C01A5241430812
S11328C08B4201D34B00C01A5241411A00D2014637
S11328D0524110467047FFE701B5002000F006F8AA
S11328E002BDC0460029F7D076E770477047C0465E
S11328F0F0B5CE46474615042D0C2E0080B50704CE
S1132900140C3F0C9946030C7E435D4367436343B9
S11329107F19340CE4199C46A54203D980235B0239
S11329209846C4444B46514343433604360C250C65
S113293024046544A4195918491920000CBC904674
S11329409946F0BD70B500260C4D0D4C641BA410C7
S1132950A64209D1002601F01FF90A4D0A4C641B56
S1132960A410A64205D170BDB300EB5898470136B8
S1132970EEE7B300EB5898470136F2E7A43B0000BA
S1132980A43B0000A43B0000A83B00000300821805
S1132990934200D1704719700133F9E70FB40B4B20
S11329A013B51C68002C05D0A369002B02D12000AC
S11329B000F0F2FA05AB049AA1682000019300F03C
S11329C0C7FC16BC08BC04B01847C0460404002069
S11329D070B505000E00002804D08369002B01D1D6
S11329E000F0DAFAAB69AC68002B02D1280000F0E1
S11329F0D3FA244B9C420FD16C68A3891B0702D5E0
S1132A002369002B20D12100280000F057F9002869
S1132A101AD00120404270BD1B4B9C4201D1AC68CE
S1132A20EBE71A4B9C42E8D1EC68E6E7013B013640
S1132A30A360002B04DAA269934216DB0A2914D09E
S1132A4023685A1C226019703178A3680029EDD1DB
S1132A50013BA360002B0FDA22000A31280000F0AA
S1132A60D7F8431CD5D00A20D5E72200280000F06F
S1132A70CFF8431CE8D1CCE70A2023685A1C226013
S1132A801870C8E7243B0000443B0000043B0000EE
S1132A9010B5034B01001868FFF79AFF10BDC0463C
S1132AA0040400204A424A41802310B55200DB004E
S1132AB000F002F810BD0000F0B51D004F4B85B0CA
S1132AC01E6804000F000092002E05D0B369002B8D
S1132AD002D1300000F060FA494B9C4250D1746836
S1132AE0009B022B05D0012B00D984E0002D00DAD5
S1132AF081E02100300000F0E1F9616B002908D089
S1132B0023004433994202D0300000F051FB0023EB
S1132B1063630023A3616360A3891B0603D5216952
S1132B20300000F045FBA389364A1340A381009B83
S1132B30022B5AD003AB02AA2100300000F0C2FAE3
S1132B40A3891843A081002D24D1029D280000F000
S1132B5025FB0195071E42D1029B0193AB4239D15B
S1132B60012040420223A2891343A3810023A360CE
S1132B7023004733236023610123636105B0F0BD63
S1132B80214B9C4201D1B468AAE7204B9C42A7D1B7
S1132B90F468A5E7002FD9D0B369002B02D1300027
S1132BA000F0FAF9009B012B03D1A389009A1A4380
S1132BB0A2810820A389276027616561184018D085
S1132BC0012018400023984211D06D42A360A561F2
S1132BD01800D3E7019800F0E1FA071EC0D0802363
S1132BE0A289019D1343A381D6E70020BAE7A5601B
S1132BF0C4E7A060C2E701204042BFE7040400200C
S1132C00243B00005CF3FFFF443B0000043B000056
S1132C10F8B505000E001400002804D08369002BC9
S1132C2001D100F0B9F9224B9C422DD16C68A36903
S1132C30A360A3891B0731D52369002B2ED02368F9
S1132C402269F7B2981A6369F6B2984205DB21004B
S1132C50280000F033F9002826D1A3680130013B95
S1132C60A36023685A1C22601F706369984204D0D1
S1132C70A389DB071AD50A2E18D12100280000F0F9
S1132C801DF9002812D00FE00A4B9C4201D1AC6818
S1132C90CDE7094B9C42CAD1EC68C8E72100280063
S1132CA000F00CF80028CAD0012676423000F8BDA6
S1132CB0243B0000443B0000043B0000364B70B54D
S1132CC01D6806000C00002D05D0AB69002B02D155
S1132CD0280000F061F9314B9C420FD16C680C2341
S1132CE0E25E93B219072DD4D90611D40923012029
S1132CF0336037331343A381404270BD284B9C4259
S1132D0001D1AC68EBE7274B9C42E8D1EC68E6E7DD
S1132D105B0713D5616B002908D023004433994223
S1132D2002D0300000F044FA002363632422A38914
S1132D309343A38100236360236923600823A2894A
S1132D401343A3812369002B0BD1A0218022A389E3
S1132D50890092000B40934203D02100300000F020
S1132D60D9F90123A289134011D00023A360636918
S1132D705B42A361002023698342BED10C23E25E3F
S1132D801306BAD540231343A3810138B5E792074C
S1132D9000D46369A360EDE704040020243B000031
S1132DA0443B0000043B0000F7B58A8905000C0091
S1132DB0130760D44B68002B04DC0B6C002B01DC84
S1132DC00020FEBDE76A002FFAD000232E682B6096
S1132DD080235B011A4034D0606DA3895B0706D55C
S1132DE06368C01A636B002B01D0236CC01A020005
S1132DF0216A00232800E76AB847A189431C06D149
S1132E002B681D2B31D82C4ADA40D3072DD500234B
S1132E10636023692360CB0405D5431C02D12B686E
S1132E20002B00D16065616B2E600029C8D023009F
S1132E304433994202D0280000F0BAF900206063BC
S1132E40BFE70123216A2800B847431CC5D12B687A
S1132E50002BC2D01D2B01D0162B01D12E60AFE761
S1132E604023A2891343A381ABE740230B430120F2
S1132E70A3814042A5E70F69002FA1D00B680F6022
S1132E80DB1B01930023920700D14B69A360019BD4
S1132E90002B00DC94E7019B3A00216A2800A66A13
S1132EA0B047002803DC4023A2891343DFE7019BDA
S1132EB03F181B1A0193EAE7010040200B6970B523
S1132EC005000C00002B01D1002070BD002804D0A7
S1132ED08369002B01D100F05FF80B4B9C4209D1B0
S1132EE06C680C22A35E002BEED021002800FFF7B3
S1132EF05BFFEAE7054B9C4201D1AC68F1E7044B68
S1132F009C42EED1EC68ECE7243B0000443B00001B
S1132F10043B000010B5024900F0B2F810BDC046F1
S1132F20BD2E0000002310B50400036043608360DD
S1132F3081814366C2810361436183611900082270
S1132F405C30FFF723FD054B24626362044BA362EC
S1132F50044BE362044B236310BDC046BD3800003C
S1132F60E53800001D3900004939000070B56825B6
S1132F704A1E55430E002900743100F063F9041E03
S1132F8008D000212A00016046600C30A06068323D
S1132F90FFF7FCFC200070BD836913B50400002B0F
S1132FA028D18364C3640365134B144A1B6882628B
S1132FB00193984201D101238361200000F020F89D
S1132FC06060200000F01CF8A060200000F018F8F9
S1132FD00022E06004216068FFF7A4FF01220921B8
S1132FE0A068FFF79FFF02221221E068FFF79AFF13
S1132FF00123A36113BDC046003B0000152F000050
S1133000F8B51E4B07001E68B369002B02D13000CF
S1133010FFF7C2FF4836B4687368013B04D53368D0
S1133020002B07D03668F6E70C22A55E002D0DD0E4
S11330306834F2E704213800FFF798FF3060002875
S1133040F0D10C2304003B602000F8BD01232000D4
S11330505B42E3810233A38165662560A5606560F8
S113306025616561A561082229005C30FFF78EFCAB
S11330706563A563A564E564E6E7C046003B00001C
S1133080F7B504000700002601914834002C01D153
S11330903000FEBD6368A5680093009B013B00936C
S11330A001D52468F2E7AB89012B08D90E22AB5E67
S11330B0013304D029003800019B98470643683542
S11330C0EBE7000070B50E001D000E23C95E90B042
S11330D01400002907DA00232B60B3891B0611D4DE
S11330E08023DB000FE001AA00F05AFC0028F2DB89
S11330F0F022029B12021340054A9B185A42534184
S11331002B60EDE740230020236010B070BDC04663
S113311000E0FFFFF7B502268B8905000C0033425F
S113312006D0230047332360236101236361F7BD85
S113313001AB6A46FFF7C6FF00990700280000F0BC
S113314081F8002808D10C22A35E9A05EFD403224B
S113315093431E43A681E4E70F4BAB628023A2890D
S113316020601343A381009B20616361019B002BBA
S11331700DD00E23E15E280000F024FC002806D0C8
S11331800322A38993431A0001231343A381A08933
S11331903843A081CBE7C046152F000010B5034B80
S11331A00100186800F04EF810BDC0460404002069
S11331B070B50500002910D00C1F2368002B00DA1D
S11331C0E418280000F02FFC1D4A1368002B05D1D9
S11331D063601460280000F027FC70BDA34209D985
S11331E0216860188342F3D118685B684118216034
S11331F0EEE713005A68002A01D0A242F9D91968EF
S11332005818A0420BD12068091858181960824236
S1133210E0D110685268411819605A60DAE7A04298
S113322002D90C232B60D5E721686018824203D1B0
S1133230106852684118216062605C60CAE7C04649
S1133240AC040020032370B5CD1C9D430835060053
S11332500C2D1ED20C25A9421DD8300000F0E3FB32
S1133260254A14682100002919D1244C2368002B15
S113327003D1300000F010FB20602900300000F082
S11332800BFB431C2CD10C233000336000F0CCFB2F
S113329003E0002DDFDA0C233360002070BD0B68DF
S11332A05B1B1AD40B2B03D90B60CC18256003E0ED
S11332B08C420ED163681360300000F0B5FB20002F
S11332C007220B30231D9043C31AE7D05A42E25021
S11332D0E4E74B6863600C00EEE70C004968C2E762
S11332E00323C41C9C43A042E0D0211A300000F008
S11332F0D3FA431CDAD1C6E7AC040020B0040020A2
S1133300936810B5013B9360002B05DA9469A342DE
S113331008DBCBB20A2B05D01368581C1060197057
S1133320C8B210BDFFF774FCFBE7F8B506000F0048
S11333301400D518AC4201D1002007E021783A00EE
S11333403000FFF7DDFF0134431CF3D1F8BD00006A
S1133350F0B59FB006000F0014000593002804D0B8
S11333608369002B01D1FFF717FE7F4B9F425CD18D
S11333707768BB891B0762D53B69002B5FD00023AC
S113338006AD6B6120336B761033AB760294029CEE
S11333902378002B5DD1029BE31A04930DD0049B88
S11333A0029A39003000FFF7C0FF431C00D1CCE083
S11333B06A69049B944663446B612378002B00D1B3
S11333C0C3E00122002352426A6002A95432521817
S11333D001342B60EB60AB601370AB652178052280
S11333E0624800F015FB631C9C46002835D129680F
S11333F0CB0604D5532302AA20309B1818700B0760
S113340004D553232B2002AA9B18187023782A2B47
S11334102CD000200A21099B2278303A092A00D8AE
S11334206BE000282AD0099328E0514B9F4201D138
S1133430B7689EE74F4B9F429BD1F76899E73900E5
S11334403000FFF73BFC002899D0012040421FB018
S1133450F0BD252B9FD001349AE7444B2968C01A4C
S1133460012383400B432B606446B7E7059B181D7B
S11334701B680590002B3ADB0993644623782E2BB6
S11334800BD16378621C2A2B3FD1059B02341A1D91
S11334901B680592002B35DB0793217803223648FD
S11334A000F0B6FA002807D0334B2A68C01A40232C
S11334B0834013432B6001342178631C06222F4878
S11334C00293297600F0A4FA002844D02C4B002B58
S11334D02FD12968059B0722C90528D59B1893433A
S11334E0083305936B69039A9B186B614FE75B4242
S11334F0EB6002230B432B60BFE74B4301349B1863
S1133500012089E701235B42C6E7002314000A2057
S11335101A006B6021783039092903D9002BBCD0FB
S11335200792BAE74243013452180123F2E7073302
S1133530D5E705AB00933A00124B2900300000E0B8
S113354000BF0390039B0133CCD1BB895B0600D53C
S11335507BE70B987BE705AB00933A00094B290006
S1133560300000F07FF8ECE7243B0000643B0000EF
S1133570443B0000043B00006A3B00006E3B00003B
S1133580000000002B330000F7B5150001938A6892
S11335900B6900900C00934200DA130022002B60A8
S11335A043321278002A01D001332B6023689B0632
S11335B002D52B6802332B60062723681F4027D0CF
S11335C0230043331B785A1E93412268920630D459
S11335D02200019943320098089EB047431C25D02D
S11335E0062320682A68E16803400025042B03D1E0
S11335F08D1AEB43DB171D40A3682269934201DD5A
S11336009B1AED180027BD4220D1002010E001379D
S1133610E3682A689B1A9F42D2DA220001231932F6
S113362001990098089EB047431CF0D10120404204
S1133630FEBD3020E1184331087021005A1C453189
S11336400978A218433202331170C1E72200012322
S11336501A3201990098089EB047431CE6D00137FE
S1133660D1E70000F0B58BB006920A00433207930D
S1133670059004920A7E0C00109B6E2A00D18FE004
S113368017D8632A2CD008D8002A00D199E0582AE8
S113369054D026004236327029E0642A01D0692AC7
S11336A0F7D121681A68080623D5111D1960156819
S11336B025E0732A00D188E008D86F2A29D0702A1F
S11336C0E7D1202209680A43226003E0752A20D04A
S11336D0782ADED122007821453211706C4A30E01C
S11336E00E001A684236111D1960136833700123E5
S11336F079E04906D9D5111D19600023D55E002D46
S113370003DA2D23049A6D421370624B0A27039344
S11337102FE020681968050603D5081D18600D6898
S113372005E04006F9D50D68081D1860ADB2594B87
S1133730082703936F2A18D00A2716E045310A7028
S1133740544A03921A682168101D18601568080607
S113375022D5CB0702D52023194321601027002D41
S113376003D1202322689A4322602300002243339A
S11337701A706368A360002B5CDB04222168914308
S11337802160002D58D1049E002B64D02600039B99
S113379042361B7833705EE04806DAD5ADB2D8E71E
S11337A009681A68080605D5111D1960136862694D
S11337B01A6006E04906F7D5111D19601368A28A3C
S11337C01A800023049E236154E01A68111D1960B5
S11337D0166800216268300000F01AF9002801D050
S11337E0801B6060636823610023049A137041E0C6
S11337F02369320006990598079DA847431C43D0C6
S1133800236800259B070FD4099BE06898423DDAA2
S113381018003BE022000123193206990598079EFF
S1133820B047431C30D00135E368099A9B1A9D4286
S1133830F0DBE9E7002DA9D0049E28003900FFF74A
S113384051F8039B013E5B5C280033703900FEF79E
S1133850C3FF051EF1D1082F09D12368DB0706D564
S113386063682269934202DC3023013E3370049B77
S11338709B1B2361079B09AA00932100069B0598C3
S1133880FFF782FE431CB3D1012040420BB0F0BDD0
S1133890863B0000753B0000002370B5064C050014
S11338A008002360FEF78CFD431C03D12368002B22
S11338B000D02B6070BDC046CC04002070B50C0055
S11338C00E25495F00F0B2F8002803DB636D1B1876
S11338D0636570BDA389024A1340A381F9E7C0461A
S11338E0FFEFFFFFF8B51F008B8905000C001600E1
S11338F0DB0505D50E23C95E0022022300F074F80F
S1133900A389054A28001340A38132000E23E15EF7
S11339103B0000F01FF8F8BDFFEFFFFF70B50C008F
S11339200E25495F00F060F8A389421C03D1054AC3
S11339301340A38170BD802252011343A3816065AB
S1133940F8E7C046FFEFFFFF10B50E23C95E00F095
S113395015F810BD70B50500080011000022064CD2
S113396022601A00FEF7F6FC431C03D12368002BE7
S113397000D02B6070BDC046CC040020002370B57D
S1133980064C050008002360FEF738FD431C03D1F4
S11339902368002B00D02B6070BDC046CC040020EF
S11339A0002370B5064C0500080011002360FEF7E3
S11339B02FFD431C03D12368002B00D02B6070BD66
S11339C0CC040020002370B5064C050008002360D9
S11339D0FEF72CFD431C03D12368002B00D02B6081
S11339E070BDC046CC04002070B50500080011006D
S11339F00022064C22601A00FEF721FD431C03D16D
S1133A002368002B00D02B6070BDC046CC0400207E
S1133A10C9B28218904201D10020704703788B42CA
S1133A20FBD00130F6E770477047000070B5050021
S1133A30080011000022064C22601A00FEF760FC08
S1133A40431C03D12368002B00D02B6070BDC046FB
S1133A50CC040020000000420004004200080042A0
S1133A60000C004200100042000400438C110000CE
S1133A709A110000A8110000B6110000C411000042
S1133A80721A0000EC1A0000EC1A0000921A0000EE
S1133A908C1A0000981A0000781A00009E1A000080
S1133AA0D21A00000C1C00001A1C0000281C000084
S1133AB0361C0000441C0000414553204C69622020
S1133AC074657374200D0A0D000000004D65737356
S1133AD0616765206973200D00000000253032788D
S1133AE0200D0A00436970686572206973200D0017
S1133AF0000102030405060708090A0B0C0D0E0F4A
S1133B000804002000000000000000000000000085
S1133B1000000000000000000000000000000000A1
S1133B200000000000000000000000000000000091
S1133B300000000000000000000000000000000081
S1133B400000000000000000000000000000000071
S1133B500000000000000000000000000000000061
S1133B6000000000232D302B2000686C4C0065669B
S1133B7067454647003031323334353637383941BA
S1133B8042434445460030313233343536373839D0
S1133B906162636465660000F8B5C046F8BC08BCA1
S1133BA09E467047DD000000F8B5C046F8BC08BC6E
S10B3BB09E467047B5000000B9
S1133BB8637C777BF26B6FC53001672BFED7AB76DE
S1133BC8CA82C97DFA5947F0ADD4A2AF9CA472C089
S1133BD8B7FD9326363FF7CC34A5E5F171D83115F6
S1133BE804C723C31896059A071280E2EB27B27517
S1133BF809832C1A1B6E5AA0523BD6B329E32F848F
S1133C0853D100ED20FCB15B6ACBBE394A4C58CF86
S1133C18D0EFAAFB434D338545F9027F503C9FA85A
S1133C2851A3408F929D38F5BCB6DA2110FFF3D228
S1133C38CD0C13EC5F974417C4A77E3D645D1973DC
S1133C4860814FDC222A908846EEB814DE5E0BDBD6
S1133C58E0323A0A4906245CC2D3AC629195E4790D
S1133C68E7C8376D8DD54EA96C56F4EA657AAE0867
S1133C78BA78252E1CA6B4C6E8DD741F4BBD8B8A02
S1133C88703EB5664803F60E613557B986C11D9E68
S1133C98E1F8981169D98E949B1E87E9CE5528DFDF
S1133CA88CA1890DBFE6426841992D0FB054BB160B
S1133CB800020406080A0C0E10121416181A1C1E08
S1133CC820222426282A2C2E30323436383A3C3EF8
S1133CD840424446484A4C4E50525456585A5C5EE8
S1133CE860626466686A6C6E70727476787A7C7ED8
S1133CF880828486888A8C8E90929496989A9C9EC8
S1133D08A0A2A4A6A8AAACAEB0B2B4B6B8BABCBEB7
S1133D18C0C2C4C6C8CACCCED0D2D4D6D8DADCDEA7
S1133D28E0E2E4E6E8EAECEEF0F2F4F6F8FAFCFE97
S1133D381B191F1D131117150B090F0D0301070577
S1133D483B393F3D333137352B292F2D2321272567
S1133D585B595F5D535157554B494F4D4341474557
S1133D687B797F7D737177756B696F6D6361676547
S1133D789B999F9D939197958B898F8D8381878537
S1133D88BBB9BFBDB3B1B7B5ABA9AFADA3A1A7A527
S1133D98DBD9DFDDD3D1D7D5CBC9CFCDC3C1C7C517
S1133DA8FBF9FFFDF3F1F7F5EBE9EFEDE3E1E7E507
S1133DB8000306050C0F0A09181B1E1D14171211FF
S1133DC8303336353C3F3A39282B2E2D24272221EF
S1133DD8606366656C6F6A69787B7E7D74777271DF
S1133DE8505356555C5F5A59484B4E4D44474241CF
S1133DF8C0C3C6C5CCCFCAC9D8DBDEDDD4D7D2D1BF
S1133E08F0F3F6F5FCFFFAF9E8EBEEEDE4E7E2E1AE
S1133E18A0A3A6A5ACAFAAA9B8BBBEBDB4B7B2B19E
S1133E28909396959C9F9A99888B8E8D848782818E
S1133E389B989D9E97949192838085868F8C898A7E
S1133E48ABA8ADAEA7A4A1A2B3B0B5B6BFBCB9BA6E
S1133E58FBF8FDFEF7F4F1F2E3E0E5E6EFECE9EA5E
S1133E68CBC8CDCEC7C4C1C2D3D0D5D6DFDCD9DA4E
S1133E785B585D5E57545152434045464F4C494A3E
S1133E886B686D6E67646162737075767F7C797A2E
S1133E983B383D3E37343132232025262F2C292A1E
S1133EA80B080D0E07040102131015161F1C191A0E
S1133EB88D01020408102040801B366CD8AB4D9A43
S1133EC82F5EBC63C697356AD4B37DFAEFC59139C2
S1133ED872E4D3BD61C29F254A943366CC831D3AEC
S1133EE874E8CB8D01020408102040801B366CD87E
S1133EF8AB4D9A2F5EBC63C697356AD4B37DFAEF8F
S1133F08C5913972E4D3BD61C29F254A943366CC06
S1133F18831D3A74E8CB8D01020408102040801BED
S1133F28366CD8AB4D9A2F5EBC63C697356AD4B34A
S1133F387DFAEFC5913972E4D3BD61C29F254A94D5
S1133F483366CC831D3A74E8CB8D01020408102033
S1133F5840801B366CD8AB4D9A2F5EBC63C6973530
S1133F686AD4B37DFAEFC5913972E4D3BD61C29FB7
S1133F78254A943366CC831D3A74E8CB8D01020438
S1133F8808102040801B366CD8AB4D9A2F5EBC635A
S1133F98C697356AD4B37DFAEFC5913972E4D3BDB7
S1133FA861C29F254A943366CC831D3A74E8CB8D4D
S1133FB8010000000804002000000000243B000069
S1133FC8443B0000043B0000000000000000000027
S1133FD800000000000000000000000000000000D5
S1133FE800000000000000000000000000000000C5
S1133FF800000000000000000000000000000000B5
S113400800000000000000000000000000000000A4
S10B401800000000000000009C
S903226575
